:060000000A128A11FC2F18
:100F2400F201F3018316031387018312031387016C
:100F34003F3083160313920004308312031392008C
:100F44000F309D00EF2F7308F1007208F0000310BA
:100F5400F10CF00C0310F10CF00C70088312031365
:100F64009B0072080139F000F00E1D087006EF397D
:100F740070069D0072080239F000F00EF00D1D0895
:100F84007006DF3970069D000D30F100FB30F00073
:100F9400F00BCA2FF10BCA2FCF2F7208053EF200B7
:100FA40073080318013E003EF30003307302FF3060
:100FB40003197202031CDF2FE02FEF2FF201F3015C
:100FC400831203139B011D129D120730F1007D3023
:100FD400F000F00BEB2FF10BEB2F03307302FF301B
:100FE40003197202031CF72FF82FA52FEF2F0A12F3
:0C0FF4008A11002883010A128A11922F32
:00000001FF
