:060000000A128A11FC2F18
:100F3C003F30831203139F05831603139F178312ED
:100F4C0003131F141F08C3390C389F000830F2001C
:100F5C00F20BAE2F831203139F149F18B62FB72FCB
:100F6C00B32F1E08F100831603131E08F0000800AF
:100F7C008316031387018312031387013F308316F3
:100F8C000313920004308312031392000F309D0060
:100F9C000A128A119E270A128A117108F60070082B
:100FAC00F5007608F4007508F3000310F40CF30C4C
:100FBC000310F40CF30C7308831203139B007508D5
:100FCC000139F300F30E1D087306EF3973069D000B
:100FDC0075080239F300F30EF30D1D087306DF39A3
:100FEC0073069D00CE2F0A128A11002883010A1263
:040FFC008A11BE2F69
:00000001FF
